{
  "_format": "hh-sol-artifact-1",
  "contractName": "LottoPool",
  "sourceName": "contracts/LottoPool.sol",
  "abi": [
    {
      "inputs": [
        {
          "internalType": "address",
          "name": "tokenAddr",
          "type": "address"
        }
      ],
      "stateMutability": "nonpayable",
      "type": "constructor"
    },
    {
      "anonymous": false,
      "inputs": [
        {
          "indexed": false,
          "internalType": "address",
          "name": "from",
          "type": "address"
        },
        {
          "indexed": false,
          "internalType": "uint256",
          "name": "amount",
          "type": "uint256"
        }
      ],
      "name": "Deposit",
      "type": "event"
    },
    {
      "anonymous": false,
      "inputs": [
        {
          "indexed": true,
          "internalType": "address",
          "name": "previousOwner",
          "type": "address"
        },
        {
          "indexed": true,
          "internalType": "address",
          "name": "newOwner",
          "type": "address"
        }
      ],
      "name": "OwnershipTransferred",
      "type": "event"
    },
    {
      "anonymous": false,
      "inputs": [
        {
          "indexed": false,
          "internalType": "address",
          "name": "to",
          "type": "address"
        },
        {
          "indexed": false,
          "internalType": "uint256",
          "name": "amount",
          "type": "uint256"
        }
      ],
      "name": "Withdraw",
      "type": "event"
    },
    {
      "inputs": [
        {
          "internalType": "uint256",
          "name": "amount",
          "type": "uint256"
        }
      ],
      "name": "deposit",
      "outputs": [
        {
          "internalType": "address",
          "name": "",
          "type": "address"
        },
        {
          "internalType": "uint256",
          "name": "",
          "type": "uint256"
        }
      ],
      "stateMutability": "nonpayable",
      "type": "function"
    },
    {
      "inputs": [],
      "name": "owner",
      "outputs": [
        {
          "internalType": "address",
          "name": "",
          "type": "address"
        }
      ],
      "stateMutability": "view",
      "type": "function"
    },
    {
      "inputs": [],
      "name": "renounceOwnership",
      "outputs": [],
      "stateMutability": "nonpayable",
      "type": "function"
    },
    {
      "inputs": [
        {
          "internalType": "address",
          "name": "newOwner",
          "type": "address"
        }
      ],
      "name": "transferOwnership",
      "outputs": [],
      "stateMutability": "nonpayable",
      "type": "function"
    },
    {
      "inputs": [
        {
          "internalType": "address",
          "name": "newTokenAddr",
          "type": "address"
        }
      ],
      "name": "updateLottoToken",
      "outputs": [
        {
          "internalType": "address",
          "name": "",
          "type": "address"
        }
      ],
      "stateMutability": "nonpayable",
      "type": "function"
    },
    {
      "inputs": [
        {
          "internalType": "uint256",
          "name": "amount",
          "type": "uint256"
        }
      ],
      "name": "withdraw",
      "outputs": [
        {
          "internalType": "address",
          "name": "",
          "type": "address"
        },
        {
          "internalType": "uint256",
          "name": "",
          "type": "uint256"
        }
      ],
      "stateMutability": "nonpayable",
      "type": "function"
    }
  ],
  "bytecode": "0x608060405234801561001057600080fd5b50604051610aef380380610aef83398101604081905261002f916100b1565b61003833610061565b60018055600280546001600160a01b0319166001600160a01b03929092169190911790556100e1565b600080546001600160a01b038381166001600160a01b0319831681178455604051919092169283917f8be0079c531659141344cd1fd0a4f28419497f9722a3daafe3b4186f6b6457e09190a35050565b6000602082840312156100c357600080fd5b81516001600160a01b03811681146100da57600080fd5b9392505050565b6109ff806100f06000396000f3fe608060405234801561001057600080fd5b50600436106100625760003560e01c80632e1a7d4d146100675780636e617d921461009e578063715018a6146100c95780638da5cb5b146100d3578063b6b55f25146100e4578063f2fde38b146100f7575b600080fd5b61007a6100753660046108d2565b61010a565b604080516001600160a01b0390931683526020830191909152015b60405180910390f35b6100b16100ac3660046108eb565b6102f5565b6040516001600160a01b039091168152602001610095565b6100d1610383565b005b6000546001600160a01b03166100b1565b61007a6100f23660046108d2565b610397565b6100d16101053660046108eb565b61044b565b6000806101156104c4565b6002546040516370a0823160e01b815230600482015284916001600160a01b0316906370a0823190602401602060405180830381865afa15801561015d573d6000803e3d6000fd5b505050506040513d601f19601f82011682018060405250810190610181919061091b565b10156101d45760405162461bcd60e51b815260206004820152601c60248201527f706f6f6c20646f6e2774206861766520656e6f75676820746f6b656e0000000060448201526064015b60405180910390fd5b6000831161022f5760405162461bcd60e51b815260206004820152602260248201527f776974686472617720616d6f756e742073686f756c64206e6f74206265207a65604482015261726f60f01b60648201526084016101cb565b68056bc75e2d6310000083111561029b5760405162461bcd60e51b815260206004820152602a60248201527f776974686472617720616d6f756e742073686f756c6420626520736d616c6c65604482015269072207468616e203130360b41b60648201526084016101cb565b6002546102b2906001600160a01b0316338561051d565b60408051338152602081018590527f884edad9ce6fa2440d8a54cc123490eb96d2768479d49ff9c7366125a9424364910160405180910390a15050600180553391565b60006102ff610585565b6001600160a01b0382166103645760405162461bcd60e51b815260206004820152602660248201527f4c6f74746f20746f6b656e20616464726573732073686f756c64206e6f74206260448201526519481b9d5b1b60d21b60648201526084016101cb565b50600280546001600160a01b0319166001600160a01b03831617905590565b61038b610585565b61039560006105df565b565b6000806801a055690d9db800008310156103f35760405162461bcd60e51b815260206004820152601960248201527f6465706f73697420616d6f756e74206e6f7420656e6f7567680000000000000060448201526064016101cb565b60025461040b906001600160a01b031633308661062f565b60408051338152602081018590527fe1fffcc4923d04b559f4d29a8bfc6cda04eb5b0d3c460751c2402c5c5cc9109c910160405180910390a15033929050565b610453610585565b6001600160a01b0381166104b85760405162461bcd60e51b815260206004820152602660248201527f4f776e61626c653a206e6577206f776e657220697320746865207a65726f206160448201526564647265737360d01b60648201526084016101cb565b6104c1816105df565b50565b6002600154036105165760405162461bcd60e51b815260206004820152601f60248201527f5265656e7472616e637947756172643a207265656e7472616e742063616c6c0060448201526064016101cb565b6002600155565b6040516001600160a01b03831660248201526044810182905261058090849063a9059cbb60e01b906064015b60408051601f198184030181529190526020810180516001600160e01b03166001600160e01b03199093169290921790915261066d565b505050565b6000546001600160a01b031633146103955760405162461bcd60e51b815260206004820181905260248201527f4f776e61626c653a2063616c6c6572206973206e6f7420746865206f776e657260448201526064016101cb565b600080546001600160a01b038381166001600160a01b0319831681178455604051919092169283917f8be0079c531659141344cd1fd0a4f28419497f9722a3daafe3b4186f6b6457e09190a35050565b6040516001600160a01b03808516602483015283166044820152606481018290526106679085906323b872dd60e01b90608401610549565b50505050565b60006106c2826040518060400160405280602081526020017f5361666545524332303a206c6f772d6c6576656c2063616c6c206661696c6564815250856001600160a01b03166107429092919063ffffffff16565b90508051600014806106e35750808060200190518101906106e39190610934565b6105805760405162461bcd60e51b815260206004820152602a60248201527f5361666545524332303a204552433230206f7065726174696f6e20646964206e6044820152691bdd081cdd58d8d9595960b21b60648201526084016101cb565b60606107518484600085610759565b949350505050565b6060824710156107ba5760405162461bcd60e51b815260206004820152602660248201527f416464726573733a20696e73756666696369656e742062616c616e636520666f6044820152651c8818d85b1b60d21b60648201526084016101cb565b600080866001600160a01b031685876040516107d6919061097a565b60006040518083038185875af1925050503d8060008114610813576040519150601f19603f3d011682016040523d82523d6000602084013e610818565b606091505b509150915061082987838387610834565b979650505050505050565b606083156108a357825160000361089c576001600160a01b0385163b61089c5760405162461bcd60e51b815260206004820152601d60248201527f416464726573733a2063616c6c20746f206e6f6e2d636f6e747261637400000060448201526064016101cb565b5081610751565b61075183838151156108b85781518083602001fd5b8060405162461bcd60e51b81526004016101cb9190610996565b6000602082840312156108e457600080fd5b5035919050565b6000602082840312156108fd57600080fd5b81356001600160a01b038116811461091457600080fd5b9392505050565b60006020828403121561092d57600080fd5b5051919050565b60006020828403121561094657600080fd5b8151801515811461091457600080fd5b60005b83811015610971578181015183820152602001610959565b50506000910152565b6000825161098c818460208701610956565b9190910192915050565b60208152600082518060208401526109b5816040850160208701610956565b601f01601f1916919091016040019291505056fea26469706673582212203cfa75169c8f9a2a5aeab20e6aea977e847b0a061a500363c59e6bc3895dee2a64736f6c63430008140033",
  "linkReferences": {},
  "deployedLinkReferences": {}
}